:020000040800F2
:1000000000280020491B0008D91A0008DF1A000840
:10001000E51A0008EB1A0008F11A000800000000B9
:10002000000000000000000000000000F71A0008B7
:10003000031B0008000000000F1B00081B1B00082A
:10004000911B0008911B0008911B0008911B0008E0
:10005000911B0008911B0008911B0008911B0008D0
:10006000911B0008911B0008911B0008911B0008C0
:10007000911B0008911B0008911B0008911B0008B0
:10008000911B0008911B0008911B0008911B0008A0
:10009000911B0008911B0008911B0008911B000890
:1000A000911B0008911B0008911B0008911B000880
:1000B000291B0008911B000800000000911B00088C
:1000C000911B00080000000000000000911B0008C8
:1000D00000000000911B0008911B000800000000B8
:1000E000911B0008911B0008911B000800000000F4
:1000F0000000000000000000000000000000000000
:0C01000000000000000000005FF808F1A3
:1001100010B5054C237833B9044B13B10448AFF341
:1001200000800123237010BD30000020000000007B
:10013000D831000808B5034B1BB103490348AFF39E
:10014000008008BD0000000034000020D831000805
:1001500070B54FF0FF0C4CF4E06C1CEA11541DBF5D
:100160001CEA135594EA0C0F95EA0C0F00F0DEF828
:100170002C4481EA030621EA4C5123EA4C5350EA0D
:10018000013518BF52EA033541F4801143F480135E
:1001900038D0A0FB02CE4FF00005E1FB02E506F0EF
:1001A0000042E0FB03E54FF00006E1FB03569CF044
:1001B000000F18BF4EF0010EA4F1FF04B6F5007F4A
:1001C00064F5407404D25FEA4E0E6D4146EB0606BC
:1001D00042EAC62141EA55514FEAC52040EA5E5045
:1001E0004FEACE2EB4F1FD0C88BFBCF5E06F1ED8EF
:1001F000BEF1004F08BF5FEA500E50F1000041EB26
:10020000045170BD06F0004646EA010140EA0200D2
:1002100081EA0301B4EB5C04C2BFD4EB0C0541EAF4
:10022000045170BD41F480114FF0000E013C00F309
:10023000AB8014F1360FDEBF002001F0004170BD2D
:10024000C4F10004203C35DA0C341BDC04F1140446
:10025000C4F1200500FA05F320FA04F001FA05F2D2
:1002600040EA020001F0004221F0004110EBD3709F
:1002700021FA04F642EB06015EEA430E08BF20EACB
:10028000D37070BDC4F10C04C4F1200500FA04F36E
:1002900020FA05F001FA04F240EA020001F0004100
:1002A00010EBD37041F100015EEA430E08BF20EA73
:1002B000D37070BDC4F1200500FA05F24EEA020EBB
:1002C00020FA04F301FA05F243EA020321FA04F0EA
:1002D00001F0004121FA04F220EA020000EBD370A1
:1002E0005EEA430E08BF20EAD37070BD94F0000FA1
:1002F0000FD101F00046400041EB010111F4801FD5
:1003000008BF013CF7D041EA060195F0000F18BF85
:10031000704703F00046520043EB030313F4801FC1
:1003200008BF013DF7D043EA0603704794EA0C0F7B
:100330000CEA135518BF95EA0C0F0CD050EA410691
:1003400018BF52EA4306D1D181EA030101F000410E
:100350004FF0000070BD50EA410606BF1046194636
:1003600052EA430619D094EA0C0F02D150EA013642
:1003700013D195EA0C0F05D152EA03361CBF104683
:1003800019460AD181EA030101F0004141F0FE4122
:1003900041F470014FF0000070BD41F0FE4141F4A6
:1003A000780170BD81F0004102E000BF83F000439E
:1003B00030B54FEA41044FEA430594EA050F08BF00
:1003C00090EA020F1FBF54EA000C55EA020C7FEAC4
:1003D000645C7FEA655C00F0E2804FEA5454D4EB41
:1003E0005555B8BF6D420CDD2C4480EA020281EA0B
:1003F000030382EA000083EA010180EA020281EA43
:100400000303362D88BF30BD11F0004F4FEA013194
:100410004FF4801C4CEA113102D0404261EB4101A3
:1004200013F0004F4FEA03334CEA133302D0524229
:1004300063EB430394EA050F00F0A780A4F10104E5
:10044000D5F1200E0DDB02FA0EFC22FA05F280181F
:1004500041F1000103FA0EF2801843FA05F3594105
:100460000EE0A5F120050EF1200E012A03FA0EFC84
:1004700028BF4CF0020C43FA05F3C01851EBE371AE
:1004800001F0004507D54FF0000EDCF1000C7EEBCB
:1004900000006EEB0101B1F5801F1BD3B1F5001F09
:1004A0000CD349085FEA30004FEA3C0C04F1010428
:1004B0004FEA445212F5800F80F09A80BCF1004F51
:1004C00008BF5FEA500C50F1000041EB045141EAD3
:1004D000050130BD5FEA4C0C404141EB0101013C9C
:1004E00028BFB1F5801FE9D291F0000F04BF01468B
:1004F0000020B1FA81F308BF2033A3F10B03B3F15D
:1005000020020CDA0C3208DD02F1140CC2F10C02EC
:1005100001FA0CF021FA02F10CE002F11402D8BF4A
:10052000C2F1200C01FA02F120FA0CFCDCBF41EA16
:100530000C019040E41AA2BF01EB0451294330BDE5
:100540006FEA04041F3C1CDA0C340EDC04F11404C2
:10055000C4F1200220FA04F001FA02F340EA030099
:1005600021FA04F345EA030130BDC4F10C04C4F1DF
:10057000200220FA02F001FA04F340EA03002946BF
:1005800030BD21FA04F0294630BD94F0000F83F409
:10059000801306BF81F480110134013D4EE77FEAEC
:1005A000645C18BF7FEA655C29D094EA050F08BF38
:1005B00090EA020F05D054EA000C04BF1946104619
:1005C00030BD91EA030F1EBF0021002030BD5FEA5D
:1005D000545C05D14000494128BF41F0004130BD85
:1005E00014F580043CBF01F5801130BD01F00045D9
:1005F00045F0FE4141F470014FF0000030BD7FEA4C
:10060000645C1ABF194610467FEA655C1CBF0B4646
:10061000024650EA013406BF52EA033591EA030F5D
:1006200041F4002130BD00BF90F0000F04BF002155
:10063000704730B54FF4806404F132044FF0000588
:100640004FF0000150E700BF90F0000F04BF002101
:10065000704730B54FF4806404F1320410F0004567
:1006600048BF40424FF000013EE700BF42004FEA62
:10067000E2014FEA31014FEA02701FBF12F07F43DF
:1006800093F07F4F81F06051704732F07F4208BF96
:10069000704793F07F4F04BF41F40021704730B59D
:1006A0004FF4607401F0004521F000411CE700BFE9
:1006B00050EA010208BF704730B54FF000050AE06C
:1006C00050EA010208BF704730B511F0004502D56D
:1006D000404261EB41014FF4806404F132045FEA6F
:1006E000915C3FF4D8AE4FF003025FEADC0C18BF18
:1006F00003325FEADC0C18BF033202EBDC02C2F10A
:10070000200300FA03FC20FA02F001FA03FE40EA9B
:100710000E0021FA02F11444BDE600BF4FEA410287
:1007200012F5001215D211D56FF47873B3EB625243
:1007300012D94FEAC12343F0004343EA505311F06A
:10074000004F23FA02F018BF404270474FF00000FC
:10075000704750EA013005D111F0004008BF6FF03A
:10076000004070474FF00000704700BF80B582B076
:1007700000AF78607B68092B7FD801A252F823F084
:10078000A9070008BF070008D5070008EB07000805
:1007900001080008170800082D0800084308000891
:1007A000590800086508000800223F21354801F07B
:1007B000F2FC01224021334801F0EDFC5EE0012211
:1007C0007921304801F0E7FC002206212D4801F094
:1007D000E2FC53E000225B212A4801F0DCFC01220C
:1007E0002421284801F0D7FC48E000224F21254869
:1007F00001F0D1FC01223021224801F0CCFC3DE087
:10080000002266211F4801F0C6FC012219211D4863
:1008100001F0C1FC32E000226D211A4801F0BBFC5E
:1008200001221221174801F0B6FC27E000227D21A9
:10083000144801F0B0FC01220221124801F0ABFC87
:100840001CE0012278210F4801F0A5FC00220721BD
:100850000C4801F0A0FC11E000227F21094801F0C2
:100860009AFC0BE000226F21064801F094FC012263
:100870001021044801F08FFC00E000BF00BF0837E2
:10088000BD4680BD000C014080B400AF084B1B6822
:10089000084A1360084B1B68084A1360084B002283
:1008A0001A70084B02221A7000BFBD4680BC704708
:1008B000AC00002000000020B00000200400002058
:1008C0004C0000200800002080B500AF9F4B1B6843
:1008D000013B9E4A13609E4B1B68013B9C4A136080
:1008E0009C4B1B78022B5DD0022B00F38680002BE3
:1008F00002D0012B2BD080E000221021964801F07D
:100900004AFC01222021944801F045FC01224021AB
:10091000914801F040FC8D4B1B68002B6FDA8F4B28
:100920001B68013B894A13608A4B02221A7001221C
:100930001021894801F02FFC01222021864801F076
:100940002AFC00224021844801F025FC57E00122C6
:100950001021814801F01FFC002220217E4801F077
:100960001AFC012240217C4801F015FC774B1B68E2
:10097000002B46DA7A4B1B68013B744A1360754BB7
:1009800000221A7000221021734801F004FC012299
:100990002021714801F0FFFB012240216E4801F047
:1009A000FAFB2EE0012210216B4801F0F4FB01223A
:1009B0002021694801F0EFFB00224021664801F048
:1009C000EAFB624B1B68002B1DDA664B1B68013B80
:1009D0005E4A13605F4B01221A70012210215E48AB
:1009E00001F0D9FB002220215B4801F0D4FB012259
:1009F0004021594801F0CFFB05E000BF04E000BFF3
:100A000002E000BF00E000BF574B1B78022B65D00F
:100A1000022B00F39280002B02D0012B2FD08CE010
:100A2000002280214C4801F0B6FB01224FF4807176
:100A3000494801F0B0FB01224FF40071464801F033
:100A4000AAFB434B1B68002B79DA444B1B68013B24
:100A50003F4A1360444B02221A70012280213E4813
:100A600001F099FB01224FF480713B4801F093FBA8
:100A700000224FF40071384801F08DFB5FE0012245
:100A80008021354801F087FB00224FF48071324805
:100A900001F081FB01224FF400712F4801F07BFB34
:100AA0002B4B1B68002B4CDA2D4B1B68013B284A53
:100AB00013602D4B00221A7000228021264801F07D
:100AC0006AFB01224FF48071234801F064FB01228C
:100AD0004FF40071204801F05EFB32E001228021DA
:100AE0001D4801F058FB01224FF480711A4801F0B3
:100AF00052FB00224FF40071174801F04CFB144BDD
:100B00001B68002B1FDA174B1B68013B104A136050
:100B1000154B01221A70012280210F4801F03BFB86
:100B200000224FF480710C4801F035FB01224FF494
:100B30000071094801F02FFB05E000BF04E000BF91
:100B400002E000BF00E000BF00BF80BD0000002049
:100B5000040000204C00002000080140B0000020EC
:100B6000AC000020A80000200800002080B400AFE6
:100B7000104B1B68013B032B16D801A252F823F03F
:100B8000910B0008970B00089D0B0008A30B0008B1
:100B9000094B1B680AE0094B1B6807E0084B1B6800
:100BA00004E0084B1B6801E000BF00231846BD4667
:100BB00080BC70470C00002000000020B400002022
:100BC000B8000020BC00002080B400AF104B1B68B0
:100BD000013B032B16D801A252F823F0ED0B0008BD
:100BE000F30B0008F90B0008FF0B0008094B1B680A
:100BF0000AE0094B1B6807E0084B1B6804E0084B40
:100C00001B6801E000BF00231846BD4680BC70474A
:100C10000C00002004000020B4000020B8000020D8
:100C2000BC00002080B500AF694B1B68013B032B63
:100C300000F2C38001A252F823F000BF4D0C00085F
:100C4000690C0008DB0C00084B0D000800F0DAFE10
:100C50000346002B00F0B3805E4B1B68184600F083
:100C600053FEFFF731FEAAE000F0CCFE0346002B56
:100C700000F0A780574B1B681846FFF7D5FC4FF0D4
:100C80000002554BFFF764FA02460B461046194620
:100C9000FFF744FD0346184600F036FE10214F488A
:100CA00001F091FA80214D4801F08DFA01222021B6
:100CB0004A4801F070FA01224FF48071474801F070
:100CC0006AFA01224021454801F065FA01224FF4F9
:100CD0000071424801F05FFA73E000F093FE0346B2
:100CE000002B70D03B4B1B681846FFF79DFC4FF064
:100CF0000002394BFFF72CFA02460B461046194604
:100D0000FFF70CFD0346184600F0FEFD2021334896
:100D100001F059FA4FF48071304801F054FA012281
:100D200010212E4801F037FA012280212B4801F0D2
:100D300032FA01224021294801F02DFA01224FF414
:100D40000071264801F027FA3DE000F05BFE034603
:100D5000002B3AD01F4B1B681846FFF765FC4FF07D
:100D600000021D4BFFF7F4F902460B4610461946E8
:100D7000FFF7D4FC0346184600F0C6FD4021174893
:100D800001F021FA4FF40071144801F01CFA01221D
:100D90001021124801F0FFF9012280210F4801F0D3
:100DA000FAF9012220210D4801F0F5F901224FF452
:100DB00080710A4801F0EFF907E000BF06E000BFCC
:100DC00004E000BF02E000BF00E000BF00BF80BD44
:100DD0000C0000205C0000200000E03F0008014003
:100DE00080B500AFB44B1B68012B40F0BB80B34B08
:100DF0001B68032B00F25B8101A252F823F000BFB5
:100E0000110E0008610E0008BB0E00080B0F000851
:100E100001224FF40051AA4801F0BDF901224FF41C
:100E20008051A74801F0B7F901224FF40061A448AE
:100E300001F0B1F900224FF48061A14801F0ABF953
:100E4000FFF794FE03469F4A82FB03129210DB17C2
:100E5000D31A1846FFF78AFC984B01221A6029E141
:100E600001224FF40051964801F095F901224FF408
:100E70008051934801F08FF901224FF4806190482E
:100E800001F089F900224FF400618D4801F083F9E7
:100E9000FFF76CFE01468B4B83FB01239A10CB17A7
:100EA000D21A13469B0013445B00CA1A1046FFF780
:100EB0005DFC824B02221A60FCE001224FF40061CB
:100EC0007F4801F068F901224FF480617C4801F00D
:100ED00062F901224FF40051794801F05CF90022D7
:100EE0004FF48051764801F056F9FFF76DFE034646
:100EF000744A82FB03129210DB17D31A1846FFF7CD
:100F000035FC6E4B03221A60D4E001224FF480516D
:100F10006B4801F040F901224FF40061684801F08C
:100F20003AF901224FF48061654801F034F900225A
:100F30004FF40051624801F02EF9FFF745FE0146DB
:100F4000604B83FB01239A10CB17D21A13469B00E8
:100F500013445B00CA1A1046FFF708FC574B0022E7
:100F60001A60A7E0554B1B68032B00F2A28001A278
:100F700052F823F0850F0008C30F00080510000881
:100F80005510000801224FF400514D4801F003F9BB
:100F900001224FF480514A4801F0FDF801224FF43C
:100FA0000061474801F0F7F800224FF4806144489F
:100FB00001F0F1F80020FFF7D9FB404B01221A6045
:100FC00078E001224FF400513D4801F0E4F801229D
:100FD0004FF480513A4801F0DEF801224FF480616D
:100FE000374801F0D8F800224FF40061344801F08E
:100FF000D2F8314B1B681846FFF7B8FB2F4B022283
:101000001A6057E001224FF400612D4801F0C3F847
:1010100001224FF480612A4801F0BDF801224FF40B
:101020000051274801F0B7F800224FF480512448BE
:1010300001F0B1F8FFF7C8FD0346224A82FB031214
:101040009210DB17D31A1846FFF790FB1B4B0322B5
:101050001A602FE001224FF48051194801F09BF8EB
:1010600001224FF40061164801F095F801224FF477
:101070008061134801F08FF800224FF400511048AE
:1010800001F089F8FFF7A0FD01460E4B83FB012319
:101090009A10CB17D21A13469B0013445B00CA1A4E
:1010A0001046FFF763FB054B00221A6002E000BF09
:1010B00000E000BF00BF80BD0C00002050000020F9
:1010C000000801406766666680B400AF0C4B0522DD
:1010D0001A600C4B03221A600B4B02221A60084B59
:1010E0001B680A4A1360074B1B68094A1360064BCA
:1010F0001B68084A136000BFBD4680BC704700BF34
:10110000AC000020B0000020A8000020B4000020A7
:10111000B8000020BC00002080B500AF284B1B7831
:10112000002B02D0012B3CD048E0002000F040FA18
:101130000346002B3FD0224B01221A70214B1B6823
:101140000133204A13601F4B1B68022B1FD1012261
:1011500020211D4801F01FF801224FF480711A4828
:1011600001F019F801224021174801F014F801227A
:101170004FF40071144801F00EF8012210211248BA
:1011800001F009F8012280210F4801F004F80D4B0D
:101190001B68042B0FDD0B4B01221A60FFF774FB59
:1011A00009E0002000F004FA0346002B05D1044BAF
:1011B00000221A7001E000BF00E000BF00BF80BD48
:1011C000600000200C0000200008014080B400AF47
:1011D0001B4B1B68042B1FD0042B29DC022B02D0D5
:1011E000032B0DD024E0174B1B680133154A136005
:1011F000144B1B68632B1DDD124B00221A6019E093
:10120000114B1B680133104A13600F4B1B68632B93
:1012100002DD0D4B00221A600C4B1B6801330B4A98
:1012200013600A4B1B68632B02DD084B00221A6017
:1012300000BF00E000BF00BFBD4680BC704700BFDC
:101240000C000020B4000020B8000020BC000020EA
:1012500080B483B000AF00237B602B4B1B68042B52
:1012600034D0042B49DC022B02D0032B17D044E0EE
:10127000264B1A68264B1B68D31A7B60234B1B68CE
:10128000234A1360234B1A687B681344214A136076
:10129000214B1A687B6813441F4A13602EE01F4BD2
:1012A0001A681F4B1B68D31A7B601C4B1B681C4AB7
:1012B0001360174B1A687B681344154A1360134B6D
:1012C0001A687B681344114A136017E0124B1A68BE
:1012D000104B1B68D31A7B600F4B1B680D4A1360C1
:1012E0000B4B1A687B681344094A1360074B1A6852
:1012F0007B681344054A136000E000BF00BF0C3751
:10130000BD4680BC704700BF0C000020B400002028
:10131000AC000020B0000020BC000020B80000207D
:10132000A800002080B500AF354B5B78022B28D099
:10133000022B3BDC002B02D0012B0CD036E001202D
:1013400000F036F90346002B32D02D4B01225A70A3
:10135000FFF73CFF2CE0012000F02AF90346002BA8
:1013600003D1274B00225A7024E0012000F03AF903
:101370000346002B1ED0224B02225A70FFF726FF95
:1013800018E0012000F014F90346002B03D11C4B98
:1013900000225A7010E0012000F03EF90346002BB5
:1013A0000AD0FFF771FAFFF711FF05E000BF04E074
:1013B00000BF02E000BF00E000BF114B9B78002B94
:1013C00002D0012B0CD018E0022000F0F1F8034607
:1013D000002B0FD00A4B01229A70FFF739FF09E06A
:1013E000022000F0E5F80346002B05D1044B002253
:1013F0009A7001E000BF00E000BF00BF80BD00BFE9
:101400006000002080B483B000AF00237B6025E043
:10141000174A7B68134401221A70164A7B681344EA
:1014200001221A70144A7B68134401221A70134A6D
:101430007B68134400221A70114A7B68002122F84D
:101440001310104A7B68002122F813100E4A7B68A3
:10145000134400221A707B6801337B607B68022B87
:10146000D6DD00BF00BF0C37BD4680BC704700BF53
:1014700064000020680000206C0000207000002044
:1014800078000020800000207400002090B583B018
:1014900000AF0023FB7171E0FA79FB793B49895C6D
:1014A0003B4AD154FB793B4A52F82320FB793A4915
:1014B00031F81330FC791946104600F055FE03460A
:1014C0001A46324B1A55FB79304AD25CFB793049C7
:1014D000CB5C9A424FD1FA79FB792C49895C2F4A2F
:1014E000D154FB792D4AD35C002B32D1FB792C4AA5
:1014F00032F81330632B09D8FB79294A32F81320CC
:10150000013291B2264A22F8131034E0FB79254AC1
:101510000121D154FB79244A32F81330632B2AD8A5
:10152000FB79214A32F81320013291B21E4A22F887
:101530001310FB791C4A32F81330632B1BD9FB794B
:10154000194A002122F81310FB79184A0121D154BD
:1015500011E0FB79124A002122F81310FB79114A9D
:101560000021D154FB79104A002122F81310FB7995
:101570000E4A0021D154FB790133FB71FB79022B18
:101580008AD900BF00BF0C37BD4690BD680000205F
:101590006C000020100000201C00002064000020CF
:1015A00078000020700000208000002074000020DF
:1015B00080B483B000AF0346FB71FB79022B01D9E5
:1015C000002307E0FB79064AD35C002B0CBF012304
:1015D0000023DBB218460C37BD4680BC704700BF05
:1015E0006400002080B483B000AF0346FB71FB7938
:1015F000022B01D9FF2307E0FB79064AD35C012BBC
:101600000CBF01230023DBB218460C37BD4680BC5B
:10161000704700BF7000002080B483B000AF034665
:10162000FB71FB79022B01D9002307E0FB79064A05
:10163000D35C012B0CBF01230023DBB218460C370F
:10164000BD4680BC704700BF740000200000000051
:1016500080B500AF00F09EFA00F050F800F0E2F81C
:1016600000F088F8204801F0F3F9FFF7CBFEFFF710
:101670002BFD012000F048F9012000F059F91B4B27
:101680001B6801331A4AB2FBF3F21A4B1B68013391
:10169000B2FBF3F3184A1360FFF73EFDFFF7C2FAFF
:1016A000FFF740FE00F0B8F90346002BF4D0FFF737
:1016B00097FB114B1B681846FEF7B6FF08A3D3E94A
:1016C0000023FEF745FD02460B4610461946FFF77C
:1016D00025F80346184600F02BF9DDE7AFF300804C
:1016E0009A9999999999B93FC00000205400002017
:1016F00000127A00580000205C00002080B590B0F5
:1017000000AF07F1180328220021184601F05CFD04
:101710003B1D00221A605A609A60DA601A61022347
:10172000BB610123BB621023FB6200237B6307F1D3
:101730001803184600F060FD0346002B01D000F0AE
:10174000DDF80F237B600023BB600023FB600023D8
:101750003B6100237B613B1D0021184600F0CCFF5C
:101760000346002B01D000F0C9F800BF4037BD464A
:1017700080BD000080B586B000AF07F108030022ED
:101780001A605A609A60DA603B4600221A605A601A
:10179000214B4FF080421A601F4B41F63F725A6056
:1017A0001D4B00229A601C4B0922DA601A4B002262
:1017B0001A61194B00229A61174801F0F9F80346A3
:1017C000002B01D000F09AF84FF48053BB6007F172
:1017D00008031946104801F08FFA0346002B01D088
:1017E00000F08CF800233B6000237B603B461946E9
:1017F000094801F05BFC0346002B01D000F07EF8A5
:10180000054B5B68054A1360034BDB68044A1360B1
:1018100000BF1837BD4680BDC00000205400002026
:101820005800002080B586B000AF07F10803002201
:101830001A605A609A60DA60274B9B69264A43F027
:1018400004039361244B9B6903F004037B607B6872
:10185000214B9B69204A43F0080393611E4B9B690F
:1018600003F008033B603B68002243F6F0711B481D
:1018700000F091FC00227F21194800F08CFC0E231F
:10188000BB600023FB6000233B6107F1080319469E
:10189000124800F0EFFA43F6F073BB600123FB60DF
:1018A00000233B6102237B6107F1080319460B48C3
:1018B00000F0E0FA7F23BB600123FB6000233B6163
:1018C00002237B6107F108031946054800F0D2FAAC
:1018D00000BF1837BD4680BD00100240000801401F
:1018E000000C014080B582B000AF786000F034F8A1
:1018F000FFF7CCFD00BF0837BD4680BD80B400AF08
:1019000072B600BFFEE7000080B483B000AF78601D
:10191000054A7B681360054B00221A6000BF0C3734
:10192000BD4680BC704700BF880000208C000020AE
:1019300080B483B000AF7860054A7B681360054BC4
:1019400000221A6000BF0C37BD4680BC704700BF44
:10195000900000209400002080B400AF214B1B6851
:10196000002B0BDD1F4B1B68013B1E4A13601D4BF8
:101970001B68002B02D11C4B01221A601B4B1B68F9
:10198000002B0BDD194B1B68013B184A1360174BEA
:101990001B68002B02D1164B01221A60154B1B68E5
:1019A000002B0BDD134B1B68013B124A1360114BDC
:1019B0001B68002B02D1104B01221A600F4B1B68D1
:1019C000002B0BDD0D4B1B68013B0C4A13600B4BCE
:1019D0001B68002B02D10A4B01221A6000BFBD46D2
:1019E00080BC7047880000208C0000209000002000
:1019F00094000020980000209C000020A0000020FF
:101A0000A400002080B400AF024B1B681846BD46FE
:101A100080BC70478C00002080B400AF024B1B6874
:101A20001846BD4680BC70479400002080B485B045
:101A300000AF154B9B69144A43F001039361124BAD
:101A40009B6903F00103BB60BB680F4BDB690E4A67
:101A500043F08053D3610C4BDB6903F080537B6010
:101A60007B680A4B5B68FB60FB6823F0E063FB600C
:101A7000FB6843F08063FB60044AFB68536000BF6F
:101A80001437BD4680BC7047001002400000014082
:101A900080B584B000AF78607B681B68B3F1804F7D
:101AA00013D10C4BDB690B4A43F00103D361094BA3
:101AB000DB6903F00103FB60FB68002200211C20AE
:101AC00000F0A1F91C2000F0BAF900BF1037BD46A4
:101AD00080BD00BF0010024080B400AFFEE780B4BC
:101AE00000AFFEE780B400AFFEE780B400AFFEE7D2
:101AF00080B400AFFEE780B400AF00BFBD4680BC3D
:101B0000704780B400AF00BFBD4680BC704780B452
:101B100000AF00BFBD4680BC704780B500AF00F08D
:101B20007FF800BF80BD000080B500AF024800F024
:101B3000DBFF00BF80BD00BFC000002080B400AF4D
:101B400000BFBD4680BC7047FFF7F8FF0B480C494B
:101B50000C4A002302E0D458C4500433C4188C4209
:101B6000F9D3094A094C002301E013600432A24270
:101B7000FBD301F005FBFFF76BFD70470000002071
:101B8000300000201C320008300000200C01002032
:101B9000FEE7000080B500AF084B1B68074A43F022
:101BA00010031360032000F023F90F2000F008F861
:101BB000FFF73CFF0023184680BD00BF0020024015
:101BC00080B582B000AF7860124B1A68124B1B7858
:101BD00019464FF47A73B3FBF1F3B2FBF3F31846F3
:101BE00000F03BF90346002B01D001230EE07B6897
:101BF0000F2B0AD8002279684FF0FF3000F003F96C
:101C0000064A7B681360002300E00123184608376A
:101C1000BD4680BD240000202C00002028000020AC
:101C200080B400AF054B1B781A46054B1B68134464
:101C3000034A136000BFBD4680BC70472C000020E3
:101C40000801002080B400AF024B1B681846BD4657
:101C500080BC70470801002080B485B000AF786078
:101C60007B6803F00703FB600C4BDB68BB60BA6862
:101C70004FF6FF031340BB60FB681A02BB681343B7
:101C800043F0BF6343F40033BB60044ABB68D360D6
:101C900000BF1437BD4680BC704700BF00ED00E0B8
:101CA00080B400AF044BDB681B0A03F0070318463F
:101CB000BD4680BC704700BF00ED00E080B483B03B
:101CC00000AF0346FB7197F90730002B0BDBFB7964
:101CD00003F01F02064997F907305B09012000FA5B
:101CE00002F241F8232000BF0C37BD4680BC70478C
:101CF00000E100E080B483B000AF03463960FB71BF
:101D000097F90730002B0ADB3B68DAB20C4997F9E8
:101D100007301201D2B20B4483F800230AE03B687B
:101D2000DAB20849FB7903F00F03043B1201D2B287
:101D30000B441A7600BF0C37BD4680BC704700BF0D
:101D400000E100E000ED00E080B489B000AFF86091
:101D5000B9607A60FB6803F00703FB61FB69C3F1BC
:101D60000703042B28BF0423BB61FB690433062B44
:101D700002D9FB69033B00E000237B614FF0FF3297
:101D8000BB6902FA03F3DA43BB681A407B699A40E5
:101D90004FF0FF317B6901FA03F3D9437B680B40B5
:101DA000134318462437BD4680BC704780B582B0C7
:101DB00000AF78607B68013BB3F1807F01D30123E2
:101DC0000FE00A4A7B68013B53600F214FF0FF3060
:101DD000FFF790FF054B00229A60044B07221A6020
:101DE000002318460837BD4680BD00BF10E000E064
:101DF00080B582B000AF78607868FFF72DFF00BF34
:101E00000837BD4680BD80B586B000AF0346B960D7
:101E10007A60FB7300237B61FFF742FF78617A6889
:101E2000B9687869FFF790FF024697F90F301146BD
:101E30001846FFF75FFF00BF1837BD4680BD80B56D
:101E400082B000AF0346FB7197F907301846FFF7E1
:101E500035FF00BF0837BD4680BD80B582B000AFFA
:101E600078607868FFF7A2FF034618460837BD463A
:101E700080BD000080B48BB000AF78603960002373
:101E80007B6200233B6248E101227B6A02FA03F392
:101E9000FB613B681B68FA691340BB61BA69FB6967
:101EA0009A4240F037813B685B68A34A93425ED018
:101EB000A14A934275D8A14A934258D09F4A93426F
:101EC0006FD89F4A934252D09D4A934269D89D4A07
:101ED00093424CD09B4A934263D89B4A934246D04C
:101EE000994A93425DD8122B2AD8122B59D801A2B5
:101EF00052F823F06F1F0008491F00085B1F0008FD
:101F00009D1F0008A31F0008A31F0008A31F0008AF
:101F1000A31F0008A31F0008A31F0008A31F000899
:101F2000A31F0008A31F0008A31F0008A31F000889
:101F3000A31F0008A31F0008511F0008651F000809
:101F4000824A934213D02CE03B68DB683B6229E075
:101F50003B68DB6804333B6224E03B68DB680833A2
:101F60003B621FE03B68DB680C333B621AE03B6876
:101F70009B68002B02D104233B6213E03B689B6803
:101F8000012B05D108233B627B68FA691A6109E0DD
:101F900008233B627B68FA695A6103E000233B62D5
:101FA00000E000BFBB69FF2B01D87B6801E07B68C4
:101FB00004337B61BB69FF2B02D87B6A9B0002E084
:101FC0007B6A083B9B003B617B691A680F213B6978
:101FD00001FA03F3DB431A40396A3B6901FA03F360
:101FE0001A437B691A603B685B6803F08053002BDF
:101FF00000F09080564B9B69554A43F00103936172
:10200000534B9B6903F00103BB60BB68514A7B6A79
:102010009B08023352F82330FB607B6A03F0030312
:102020009B000F2202FA03F3DB43FA681340FB60C4
:102030007B68494A93420DD07B68484A934207D057
:102040007B68474A934201D1022304E0032302E064
:10205000012300E000237A6A02F003029200934019
:10206000FA681343FB603B497B6A9B080233FA68BA
:1020700041F823203B685B6803F48013002B06D0F3
:10208000384B9A683749BB6913438B6006E0354B80
:102090009A68BB69DB43334913408B603B685B68DC
:1020A00003F40013002B06D02E4BDA682D49BB69D0
:1020B0001343CB6006E02B4BDA68BB69DB4329494D
:1020C0001340CB603B685B6803F40033002B06D001
:1020D000244B5A682349BB6913434B6006E0214BEC
:1020E0005A68BB69DB431F4913404B603B685B6820
:1020F00003F48033002B06D01A4B1A681949BB69C8
:1021000013430B6006E0174B1A68BB69DB431549A4
:1021100013400B607B6A01337B623B681A687B6A01
:1021200022FA03F3002B7FF4AFAE00BF00BF2C37C1
:10213000BD4680BC704700BF000032100000311067
:1021400000002210000021100000121000001110E9
:10215000001002400000014000080140000C014056
:10216000001001400004014080B485B000AF7860E9
:102170000B467B807B689A687B881340002B02D0DB
:102180000123FB7301E00023FB73FB7B184614372C
:10219000BD4680BC704780B483B000AF78600B460A
:1021A0007B8013467B707B78002B03D07A887B681A
:1021B0001A6103E07B881A047B681A6100BF0C3740
:1021C000BD4680BC704780B485B000AF78600B46D8
:1021D0007B807B68DB68FB607A88FB6813401A04AD
:1021E000FB68D9437B880B401A437B681A6100BFA8
:1021F0001437BD4680BC704780B586B000AF7860AC
:102200007B68002B01D101236CE27B681B6803F023
:102210000103002B00F08780924B5B6803F00C03F6
:10222000042B0CD08F4B5B6803F00C03082B12D1EE
:102230008C4B5B6803F48033B3F5803F0BD1894B43
:102240001B6803F40033002B6CD07B685B68002BA9
:1022500068D1012346E27B685B68B3F5803F06D115
:10226000804B1B687F4A43F4803313602EE07B6809
:102270005B68002B0CD17B4B1B687A4A23F48033BC
:102280001360784B1B68774A23F4802313601DE0AA
:102290007B685B68B3F5A02F0CD1724B1B68714A49
:1022A00043F4802313606F4B1B686E4A43F4803302
:1022B00013600BE06B4B1B686A4A23F48033136096
:1022C000684B1B68674A23F4802313607B685B6854
:1022D000002B13D0FFF7B6FC386108E0FFF7B2FC23
:1022E00002463B69D31A642B01D90323FAE15D4B03
:1022F0001B6803F40033002BF0D014E0FFF7A2FCBE
:10230000386108E0FFF79EFC02463B69D31A642B54
:1023100001D90323E6E1534B1B6803F40033002B80
:10232000F0D100E000BF7B681B6803F00203002BC4
:1023300063D04C4B5B6803F00C03002B0BD0494B74
:102340005B6803F00C03082B1CD1464B5B6803F45D
:102350008033002B16D1434B1B6803F00203002B84
:1023600005D07B681B69012B01D00123BAE13D4BED
:102370001B6823F0F8027B685B69DB003949134373
:102380000B603AE07B681B69002B20D0364B0122A2
:102390001A60FFF757FC386108E0FFF753FC02466C
:1023A0003B69D31A022B01D903239BE12D4B1B68F8
:1023B00003F00203002BF0D02A4B1B6823F0F80235
:1023C0007B685B69DB00274913430B6015E0264BF4
:1023D00000221A60FFF736FC386108E0FFF732FC94
:1023E00002463B69D31A022B01D903237AE11D4B24
:1023F0001B6803F00203002BF0D17B681B6803F01D
:102400000803002B3AD07B689B69002B19D0174B2F
:1024100001221A60FFF716FC386108E0FFF712FC92
:1024200002463B69D31A022B01D903235AE10D4B13
:102430005B6A03F00203002BF0D0012000F09AFA4F
:102440001CE00A4B00221A60FFF7FCFB38610FE02A
:10245000FFF7F8FB02463B69D31A022B08D9032386
:1024600040E100BF001002400000424280044242AE
:102470009E4B5B6A03F00203002BE9D17B681B686B
:1024800003F00403002B00F0A6800023FB75974B9C
:10249000DB6903F08053002B0DD1944BDB69934A29
:1024A00043F08053D361914BDB6903F08053BB60F1
:1024B000BB680123FB758E4B1B6803F48073002BF4
:1024C00018D18B4B1B688A4A43F480731360FFF763
:1024D000B9FB386108E0FFF7B5FB02463B69D31A48
:1024E000642B01D90323FDE0814B1B6803F4807347
:1024F000002BF0D07B68DB68012B06D17B4B1B6A7D
:102500007A4A43F0010313622DE07B68DB68002BFD
:102510000CD1764B1B6A754A23F001031362734B8F
:102520001B6A724A23F0040313621CE07B68DB68B9
:10253000052B0CD16D4B1B6A6C4A43F004031362EC
:102540006A4B1B6A694A43F0010313620BE0674B55
:102550001B6A664A23F001031362644B1B6A634AD9
:1025600023F0040313627B68DB68002B15D0FFF7B0
:1025700069FB38610AE0FFF765FB02463B69D31A45
:1025800041F28832934201D90323ABE0574B1B6AD7
:1025900003F00203002BEED014E0FFF753FB386189
:1025A0000AE0FFF74FFB02463B69D31A41F288323B
:1025B000934201D9032395E04C4B1B6A03F00203BD
:1025C000002BEED1FB7D012B05D1484BDB69474A3F
:1025D00023F08053D3617B68DB69002B00F081809E
:1025E000424B5B6803F00C03082B61D07B68DB690E
:1025F000022B46D13F4B00221A60FFF723FB3861C4
:1026000008E0FFF71FFB02463B69D31A022B01D9F2
:10261000032367E0354B1B6803F00073002BF0D1F8
:102620007B681B6AB3F5803F08D1304B5B6823F4AD
:1026300000327B689B682D4913434B602B4B5B68D2
:1026400023F474127B68196A7B685B6A0B43274921
:1026500013434B60274B01221A60FFF7F3FA3861EE
:1026600008E0FFF7EFFA02463B69D31A022B01D9C3
:10267000032337E01D4B1B6803F00073002BF0D0E1
:102680002FE01C4B00221A60FFF7DCFA386108E0EB
:10269000FFF7D8FA02463B69D31A022B01D903236C
:1026A00020E0124B1B6803F00073002BF0D118E000
:1026B0007B68DB69012B01D1012313E00B4B5B68C5
:1026C000FB60FB6803F480327B681B6A9A4206D188
:1026D000FB6803F470127B685B6A9A4201D00123A5
:1026E00000E0002318461837BD4680BD00100240A8
:1026F000007000406000424280B584B000AF786056
:1027000039607B68002B01D10123D0E06A4B1B6844
:1027100003F007033A689A4210D9674B1B6823F00D
:10272000070265493B6813430B60634B1B6803F06A
:1027300007033A689A4201D00123B8E07B681B681E
:1027400003F00203002B20D07B681B6803F0040316
:10275000002B05D0594B5B68584A43F4E063536043
:102760007B681B6803F00803002B05D0534B5B68A4
:10277000524A43F460535360504B5B6823F0F002BD
:102780007B689B684D4913434B607B681B6803F073
:102790000103002B40D07B685B68012B07D1474BBE
:1027A0001B6803F40033002B15D101237FE07B6805
:1027B0005B68022B07D1414B1B6803F00073002BB1
:1027C00009D1012373E03D4B1B6803F00203002B8A
:1027D00001D101236BE0394B5B6823F003027B6876
:1027E0005B68364913434B60FFF72CFAF8600AE048
:1027F000FFF728FA0246FB68D31A41F28832934267
:1028000001D9032353E02D4B5B6803F00C027B6876
:102810005B689B009A42EBD1274B1B6803F00703D0
:102820003A689A4210D2244B1B6823F007022249CF
:102830003B6813430B60204B1B6803F007033A68A7
:102840009A4201D0012332E07B681B6803F0040345
:10285000002B08D0194B5B6823F4E0627B68DB68CF
:10286000164913434B607B681B6803F00803002B79
:1028700009D0124B5B6823F460527B681B69DB0054
:102880000E4913434B6000F021F802460B4B5B6886
:102890001B0903F00F030A49CB5C22FA03F3094A30
:1028A0001360094B1B681846FFF78AF90023184686
:1028B0001037BD4680BD00BF00200240001002401E
:1028C000F0310008240000202800002080B487B0E8
:1028D00000AF0023FB600023BB6000237B6100236B
:1028E0007B6000233B611E4B5B68FB60FB6803F071
:1028F0000C03042B02D0082B03D027E0194B3B61BB
:1029000027E0FB689B0C03F00F03174AD35C7B6046
:10291000FB6803F48033002B10D0114B5B685B0C19
:1029200003F00103114AD35CBB607B680D4A02FBD4
:1029300003F2BB68B2FBF3F37B6104E07B680C4AF3
:1029400002FB03F37B617B693B6102E0054B3B616A
:1029500000BF3B6918461C37BD4680BC704700BFAE
:102960000010024000127A00003200081032000805
:1029700000093D0080B485B000AF78600A4B1B6849
:102980000A4AA2FB03235B0A7A6802FB03F3FB609B
:1029900000BFFB685A1EFA60002BF9D100BF00BFD0
:1029A0001437BD4680BC704724000020D34D621010
:1029B00080B582B000AF78607B68002B01D1012325
:1029C00041E07B6893F83D30DBB2002B06D17B6899
:1029D000002283F83C207868FFF75AF87B680222CF
:1029E00083F83D207B681A687B68043319461046DB
:1029F00000F06EFA7B68012283F846207B68012292
:102A000083F83E207B68012283F83F207B68012207
:102A100083F840207B68012283F841207B680122F3
:102A200083F842207B68012283F843207B680122DF
:102A300083F844207B68012283F845207B680122CB
:102A400083F83D20002318460837BD4680BD0000AE
:102A500080B485B000AF78607B6893F83D30DBB21E
:102A6000012B01D0012335E07B68022283F83D2051
:102A70007B681B68DA687B681B6842F00102DA60D9
:102A80007B681B68164A934209D07B681B68B3F1C8
:102A9000804F04D07B681B68124A934211D17B6837
:102AA0001B689B6803F00703FB60FB68062B10D0D4
:102AB0007B681B681A687B681B6842F001021A6019
:102AC00007E07B681B681A687B681B6842F001029C
:102AD0001A60002318461437BD4680BC704700BFFB
:102AE000002C01400004004080B582B000AF786047
:102AF0007B681B681B6903F00203022B22D17B68F1
:102B00001B68DB6803F00203022B1BD17B681B6888
:102B10006FF002021A617B6801221A777B681B68DA
:102B20009B6903F00303002B03D0786800F0B4F92D
:102B300005E0786800F0A7F9786800F0B6F97B68DE
:102B400000221A777B681B681B6903F00403042BBF
:102B500022D17B681B68DB6803F00403042B1BD1C4
:102B60007B681B686FF004021A617B6802221A7787
:102B70007B681B689B6903F44073002B03D0786863
:102B800000F08AF905E0786800F07DF9786800F0D7
:102B90008CF97B6800221A777B681B681B6903F03D
:102BA0000803082B22D17B681B68DB6803F008034D
:102BB000082B1BD17B681B686FF008021A617B68C9
:102BC00004221A777B681B68DB6903F00303002B80
:102BD00003D0786800F060F905E0786800F053F9F8
:102BE000786800F062F97B6800221A777B681B68BE
:102BF0001B6903F01003102B22D17B681B68DB6874
:102C000003F01003102B1BD17B681B686FF01002C0
:102C10001A617B6808221A777B681B68DB6903F4FA
:102C20004073002B03D0786800F036F905E078682F
:102C300000F029F9786800F038F97B6800221A77EB
:102C40007B681B681B6903F00103012B0ED17B68B5
:102C50001B68DB6803F00103012B07D17B681B684D
:102C60006FF001021A617868FEF73CFE7B681B6812
:102C70001B6903F08003802B0ED17B681B68DB6827
:102C800003F08003802B07D17B681B686FF0800204
:102C90001A61786800F06BFA7B681B681B6903F0A7
:102CA0004003402B0ED17B681B68DB6803F04003B8
:102CB000402B07D17B681B686FF040021A6178686F
:102CC00000F0FCF87B681B681B6903F02003202BD5
:102CD0000ED17B681B68DB6803F02003202B07D133
:102CE0007B681B686FF020021A61786800F036FA82
:102CF00000BF0837BD4680BD80B584B000AF7860A6
:102D000039600023FB737B6893F83C30012B01D1C1
:102D10000223B4E07B68012283F83C207B68022216
:102D200083F83D207B681B689B68BB60BB6823F011
:102D30007703BB60BB6823F47F43BB607B681B6881
:102D4000BA689A603B681B68B3F5005F3ED0B3F584
:102D5000005F00F28780B3F5805F00F08680B3F5F6
:102D6000805F7FD8702B1AD0702B7BD8602B50D00F
:102D7000602B77D8502B3CD0502B73D8402B58D099
:102D8000402B6FD8302B64D0302B6BD8202B60D0E9
:102D9000202B67D8002B5CD0102B5AD062E07B68C8
:102DA00018683B6899683B685A683B68DB6800F0C4
:102DB0005EF97B681B689B68BB60BB6843F0770368
:102DC000BB607B681B68BA689A604FE07B681868D4
:102DD0003B6899683B685A683B68DB6800F047F9D4
:102DE0007B681B689A687B681B6842F480429A6023
:102DF0003CE07B6818683B6859683B68DB681A46AA
:102E000000F0BEF87B681B685021184600F015F9E9
:102E10002CE07B6818683B6859683B68DB681A4699
:102E200000F0DCF87B681B686021184600F005F9AB
:102E30001CE07B6818683B6859683B68DB681A4689
:102E400000F09EF87B681B684021184600F0F5F8FA
:102E50000CE07B681A683B681B681946104600F056
:102E6000ECF803E00123FB7300E000BF7B68012264
:102E700083F83D207B68002283F83C20FB7B1846CA
:102E80001037BD4680BD80B483B000AF786000BF0E
:102E90000C37BD4680BC704780B483B000AF78600B
:102EA00000BF0C37BD4680BC704780B483B000AF14
:102EB000786000BF0C37BD4680BC704780B483B0DB
:102EC00000AF786000BF0C37BD4680BC7047000083
:102ED00080B485B000AF786039607B681B68FB60A8
:102EE0007B68254A934207D07B68B3F1804F03D0BB
:102EF0007B68224A934208D1FB6823F07003FB6091
:102F00003B685B68FA681343FB607B681A4A93422C
:102F100007D07B68B3F1804F03D07B68174A934298
:102F200008D1FB6823F44073FB603B68DB68FA68F8
:102F30001343FB60FB6823F080023B685B6913432B
:102F4000FB607B68FA681A603B689A687B68DA62A3
:102F50003B681A687B689A627B68074A934203D190
:102F60003B681A697B681A637B6801225A6100BF5B
:102F70001437BD4680BC7047002C0140000400405F
:102F800080B487B000AFF860B9607A60FB681B6AF4
:102F90007B61FB681B6A23F00102FB681A62FB6815
:102FA0009B693B613B6923F0F0033B617B681B013C
:102FB0003A6913433B617B6923F00A037B617A69B9
:102FC000BB6813437B61FB683A699A61FB687A6965
:102FD0001A6200BF1C37BD4680BC704780B487B002
:102FE00000AFF860B9607A60FB681B6A7B61FB68C0
:102FF0001B6A23F01002FB681A62FB689B693B6145
:103000003B6923F470433B617B681B033A691343BC
:103010003B617B6923F0A0037B61BB681B017A697C
:1030200013437B61FB683A699A61FB687A691A62AB
:1030300000BF1C37BD4680BC704780B485B000AF70
:10304000786039607B689B68FB60FB6823F07003E5
:10305000FB603A68FB68134343F00703FB607B683F
:10306000FA689A6000BF1437BD4680BC704780B4D0
:1030700087B000AFF860B9607A603B60FB689B681E
:103080007B617B6923F47F437B613B681A027B6829
:103090001A43BB6813437A6913437B61FB687A69FF
:1030A0009A6000BF1C37BD4680BC704780B485B0B5
:1030B00000AF786039607B6893F83C30012B01D118
:1030C000022341E07B68012283F83C207B680222D6
:1030D00083F83D207B681B685B68FB607B681B682E
:1030E0009B68BB60FB6823F07003FB603B681B6858
:1030F000FA681343FB607B681B68FA685A607B6858
:103100001B68144A934209D07B681B68B3F1804F57
:1031100004D07B681B68104A93420CD1BB6823F033
:103120008003BB603B685B68BA681343BB607B6825
:103130001B68BA689A607B68012283F83D207B682F
:10314000002283F83C20002318461437BD4680BC7B
:10315000704700BF002C01400004004080B483B0E1
:1031600000AF786000BF0C37BD4680BC704780B4AC
:1031700083B000AF786000BF0C37BD4680BC70479D
:1031800070B500260C4D0D4C641BA410A64209D14D
:1031900000F022F800260A4D0A4C641BA410A64237
:1031A00005D170BD55F8043B98470136EEE755F858
:1031B000043B98470136F2E7143200081432000845
:1031C000143200081832000803460244934200D12A
:1031D000704703F8011BF9E7F8B500BFF8BC08BC5D
:1031E0009E467047F8B500BFF8BC08BC9E467047C5
:1031F00000000000000000000102030406070809A7
:1032000002030405060708090A0B0C0D0E0F101027
:0432100001020000B7
:043214003501000878
:043218001101000898
:10321C000500000003000000020000000100000097
:10322C0000080140000801400008014008000200AD
:10323C00040000000024F400100000000100000055
:0400000508001B498B
:00000001FF
