:020000040800F2
:1000000000280020CD1200085D12000863120008CD
:10001000691200086F120008751200080000000045
:100020000000000000000000000000007B1200083B
:100030008712000800000000931200089F120008B9
:1000400015130008151300081513000815130008F0
:1000500015130008151300081513000815130008E0
:1000600015130008151300081513000815130008D0
:1000700015130008151300081513000815130008C0
:1000800015130008151300081513000815130008B0
:1000900015130008151300081513000815130008A0
:1000A0001513000815130008151300081513000890
:1000B000AD12000815130008000000001513000819
:1000C00015130008000000000000000015130008D0
:1000D00000000000151300081513000800000000C0
:1000E0001513000815130008151300080000000080
:1000F0000000000000000000000000000000000000
:0C01000000000000000000005FF808F1A3
:10010C0010B5054C237833B9044B13B10448AFF345
:10011C0000800123237010BD1C0000200000000093
:10012C003029000808B5034B1BB103490348AFF352
:10013C00008008BD000000002000002030290008CD
:10014C0080B582B000AF78607B68092B7FD801A2A4
:10015C0052F823F0890100089F010008B50100083E
:10016C00CB010008E1010008F70100080D020008AE
:10017C0023020008390200084502000800223F2132
:10018C00354801F0ADFB01224021334801F0A8FBBA
:10019C005EE001227921304801F0A2FB0022062109
:1001AC002D4801F09DFB53E000225B212A4801F011
:1001BC0097FB01222421284801F092FB48E0002201
:1001CC004F21254801F08CFB01223021224801F0FF
:1001DC0087FB3DE0002266211F4801F081FB0122D4
:1001EC0019211D4801F07CFB32E000226D211A48D8
:1001FC0001F076FB01221221174801F071FB27E078
:10020C0000227D21144801F06BFB012202211248CF
:10021C0001F066FB1CE0012278210F4801F060FB25
:10022C00002207210C4801F05BFB11E000227F212A
:10023C00094801F055FB0BE000226F21064801F044
:10024C004FFB01221021044801F04AFB00E000BFE3
:10025C0000BF0837BD4680BD000C014080B400AF24
:10026C00084B1B68084A1360084B1B68084A13604C
:10027C00084B00221A70084B02221A7000BFBD46B0
:10028C0080BC70478C0000200000002090000020F3
:10029C0004000020380000200800002080B500AFCA
:1002AC009F4B1B68013B9E4A13609E4B1B68013B96
:1002BC009C4A13609C4B1B78022B5DD0022B00F3E5
:1002CC008680002B02D0012B2BD080E00022102145
:1002DC00964801F005FB01222021944801F000FB17
:1002EC0001224021914801F0FBFA8D4B1B68002B39
:1002FC006FDC8F4B1B68013B894A13608A4B0222CF
:10030C001A7001221021894801F0EAFA01222021F9
:10031C00864801F0E5FA00224021844801F0E0FA19
:10032C0057E001221021814801F0DAFA0022202145
:10033C007E4801F0D5FA012240217C4801F0D0FA28
:10034C00774B1B68002B46DC7A4B1B68013B744ACD
:10035C001360754B00221A7000221021734801F0B3
:10036C00BFFA01222021714801F0BAFA0122402182
:10037C006E4801F0B5FA2EE0012210216B4801F015
:10038C00AFFA01222021694801F0AAFA002240218B
:10039C00664801F0A5FA624B1B68002B1DDC664B0E
:1003AC001B68013B5E4A13605F4B00221A700122EE
:1003BC0010215E4801F094FA002220215B4801F0E4
:1003CC008FFA01224021594801F08AFA05E000BF5A
:1003DC0004E000BF02E000BF00E000BF574B1B78F9
:1003EC00022B65D0022B00F39280002B02D0012B44
:1003FC002FD08CE0002280214C4801F071FA0122B0
:10040C004FF48071494801F06BFA01224FF40071EE
:10041C00464801F065FA434B1B68002B79DC444BD2
:10042C001B68013B3F4A1360444B02221A700122A5
:10043C0080213E4801F054FA01224FF480713B4870
:10044C0001F04EFA00224FF40071384801F048FADE
:10045C005FE001228021354801F042FA00224FF47E
:10046C008071324801F03CFA01224FF400712F48A0
:10047C0001F036FA2B4B1B68002B4CDC2D4B1B6808
:10048C00013B284A13602D4B00221A700022802158
:10049C00264801F025FA01224FF48071234801F01F
:1004AC001FFA01224FF40071204801F019FA32E0D2
:1004BC00012280211D4801F013FA01224FF48071B2
:1004CC001A4801F00DFA00224FF40071174801F0A0
:1004DC0007FA144B1B68002B1FDC174B1B68013BE6
:1004EC00104A1360154B00221A70012280210F480C
:1004FC0001F0F6F900224FF480710C4801F0F0F98C
:10050C0001224FF40071094801F0EAF905E000BF3F
:10051C0004E000BF02E000BF00E000BF00BF80BDF0
:10052C0000000020040000203800002000080140DA
:10053C00900000208C000020880000200800002083
:10054C0080B400AF104B1B68013B032B16D801A2E3
:10055C0052F823F071050008770500087D050008A6
:10056C0083050008094B1B680AE0094B1B6807E070
:10057C00084B1B6804E0084B1B6801E000BF00231C
:10058C001846BD4680BC70470C00002000000020BF
:10059C0094000020980000209C00002080B400AF44
:1005AC00104B1B68013B032B16D801A252F823F009
:1005BC00CD050008D3050008D9050008DF050008A3
:1005CC00094B1B680AE0094B1B6807E0084B1B68CA
:1005DC0004E0084B1B6801E000BF00231846BD4631
:1005EC0080BC70470C000020040000209400002008
:1005FC00980000209C00002080B500AF4E4B1B687B
:10060C00013B032B00F28C8001A252F823F000BFB7
:10061C002D0600084306000891060008DF060008B6
:10062C0000F0ACFD0346002B7CD0642000F028FDCC
:10063C00FFF734FE76E000F0A1FD0346002B73D0EB
:10064C00C82000F01DFD10213C4801F061F980210B
:10065C003A4801F05DF901222021384801F040F9B7
:10066C0001224FF48071354801F03AF90122402102
:10067C00324801F035F901224FF400712F4801F096
:10068C002FF951E000F07AFD0346002B4ED0C82024
:10069C0000F0F6FC2021294801F03AF94FF4807162
:1006AC00264801F035F901221021244801F018F9EF
:1006BC0001228021214801F013F9012240211F4819
:1006CC0001F00EF901224FF400711C4801F008F9F9
:1006DC002CE000F053FD0346002B29D0C82000F07D
:1006EC00CFFC4021154801F013F94FF40071134869
:1006FC0001F00EF901221021104801F0F1F801224D
:10070C0080210E4801F0ECF8012220210B4801F069
:10071C00E7F801224FF48071084801F0E1F807E096
:10072C0000BF06E000BF04E000BF02E000BF00E035
:10073C0000BF00BF80BD00BF0C00002000080140BE
:10074C0080B500AFB44B1B68012B40F0BB80B34BA2
:10075C001B68032B00F25B8101A252F823F000BF4F
:10076C007D070008CD070008270800087708000857
:10077C0001224FF40051AA4801F0B2F801224FF4C3
:10078C008051A74801F0ACF801224FF40061A44855
:10079C0001F0A6F800224FF48061A14801F0A0F806
:1007AC00FFF7CEFE03469F4A82FB03129210DB1723
:1007BC00D31A1846FFF7C4FC984B01221A6029E1A2
:1007CC0001224FF40051964801F08AF801224FF4AF
:1007DC008051934801F084F801224FF480619048D5
:1007EC0001F07EF800224FF400618D4801F078F89A
:1007FC00FFF7A6FE01468B4B83FB01239A10CB1708
:10080C00D21A13469B0013445B00CA1A1046FFF71A
:10081C0097FC824B02221A60FCE001224FF400612B
:10082C007F4801F05DF801224FF480617C4801F0B3
:10083C0057F801224FF40051794801F051F8002289
:10084C004FF48051764801F04BF8FFF7A7FE0346B2
:10085C00744A82FB03129210DB17D31A1846FFF767
:10086C006FFC6E4B03221A60D4E001224FF48051CE
:10087C006B4801F035F801224FF40061684801F033
:10088C002FF801224FF48061654801F029F800220D
:10089C004FF40051624801F023F8FFF77FFE014648
:1008AC00604B83FB01239A10CB17D21A13469B0083
:1008BC0013445B00CA1A1046FFF742FC574B002248
:1008CC001A60A7E0554B1B68032B00F2A28001A213
:1008DC0052F823F0F10800082F09000871090008EC
:1008EC00C109000801224FF400514D4800F0F8FFF7
:1008FC0001224FF480514A4800F0F2FF01224FF4DC
:10090C000061474800F0ECFF00224FF4806144483E
:10091C0000F0E6FF0020FFF713FC404B01221A60A9
:10092C0078E001224FF400513D4800F0D9FF01223C
:10093C004FF480513A4800F0D3FF01224FF480610C
:10094C00374800F0CDFF00224FF40061344800F02E
:10095C00C7FF314B1B681846FFF7F2FB2F4B0222E7
:10096C001A6057E001224FF400612D4800F0B8FFE7
:10097C0001224FF480612A4800F0B2FF01224FF4AB
:10098C000051274800F0ACFF00224FF4805124485E
:10099C0000F0A6FFFFF702FE0346224A82FB031279
:1009AC009210DB17D31A1846FFF7CAFB1B4B032216
:1009BC001A602FE001224FF48051194800F090FF8B
:1009CC0001224FF40061164800F08AFF01224FF417
:1009DC008061134800F084FF00224FF4005110484E
:1009EC0000F07EFFFFF7DAFD01460E4B83FB01237F
:1009FC009A10CB17D21A13469B0013445B00CA1AE9
:100A0C001046FFF79DFB054B00221A6002E000BF69
:100A1C0000E000BF00BF80BD0C0000203C000020A7
:100A2C00000801406766666680B400AF0C4B052277
:100A3C001A600C4B02221A600B4B03221A60084BF3
:100A4C001B680A4A1360074B1B68094A1360064B64
:100A5C001B68084A136000BFBD4680BC704700BFCE
:100A6C008C000020900000208800002094000020C2
:100A7C00980000209C00002080B500AF164B1B781E
:100A8C00002B02D0012B18D024E0002000F088F9B4
:100A9C000346002B1BD0104B01221A700F4B1B6806
:100AAC0001330E4A13600D4B1B68042B0FDD0B4BEF
:100ABC0001221A60FFF7D2FB09E0002000F070F968
:100ACC000346002B05D1044B00221A7001E000BF35
:100ADC0000E000BF00BF80BD400000200C000020E3
:100AEC0080B400AF1B4B1B68042B1FD0042B29DCDC
:100AFC00022B02D0032B0DD024E0174B1B680133C3
:100B0C00154A1360144B1B68632B1DDD124B00221E
:100B1C001A6019E0114B1B680133104A13600F4B1C
:100B2C001B68632B02DD0D4B00221A600C4B1B68FB
:100B3C0001330B4A13600A4B1B68632B02DD084B15
:100B4C0000221A6000BF00E000BF00BFBD4680BCA1
:100B5C00704700BF0C00002094000020980000207B
:100B6C009C00002080B483B000AF00237B602B4B33
:100B7C001B68042B34D0042B49DC022B02D0032B32
:100B8C0017D044E0264B1A68264B1B68D31A7B609F
:100B9C00234B1B68234A1360234B1A687B6813444E
:100BAC00214A1360214B1A687B6813441F4A136057
:100BBC002EE01F4B1A681F4B1B68D31A7B601C4B13
:100BCC001B681C4A1360174B1A687B681344154A40
:100BDC001360134B1A687B681344114A136017E0B7
:100BEC00124B1A68104B1B68D31A7B600F4B1B6897
:100BFC000D4A13600B4B1A687B681344094A136047
:100C0C00074B1A687B681344054A136000E000BF69
:100C1C0000BF0C37BD4680BC704700BF0C000020E5
:100C2C00940000208C000020900000209C000020EC
:100C3C00980000208800002080B500AF354B5B7811
:100C4C00022B28D0022B3BDC002B02D0012B0CD02A
:100C5C0036E0012000F0A4F80346002B32D02D4BD7
:100C6C0001225A70FFF73CFF2CE0012000F098F8AD
:100C7C000346002B03D1274B00225A7024E001209D
:100C8C0000F0A8F80346002B1ED0224B02225A700B
:100C9C00FFF726FF18E0012000F082F80346002B36
:100CAC0003D11C4B00225A7010E0012000F0ACF86C
:100CBC000346002B0AD0FFF7D1FAFFF711FF05E02E
:100CCC0000BF04E000BF02E000BF00E000BF114B1A
:100CDC009B78002B02D0012B0CD018E0022000F0E6
:100CEC005FF80346002B0FD00A4B01229A70FFF7D6
:100CFC0039FF09E0022000F053F80346002B05D120
:100D0C00044B00229A7001E000BF00E000BF00BF5E
:100D1C0080BD00BF4000002080B483B000AF002332
:100D2C007B6025E0174A7B68134401221A70164A2F
:100D3C007B68134401221A70144A7B681344012205
:100D4C001A70134A7B68134400221A70114A7B688C
:100D5C00002122F81310104A7B68002122F813108E
:100D6C000E4A7B68134400221A707B6801337B6047
:100D7C007B68022BD6DD00BF00BF0C37BD4680BCA4
:100D8C00704700BF44000020480000204C000020A9
:100D9C00500000205800002060000020540000206B
:100DAC0080B483B000AF0346FB71FB79022B01D9F1
:100DBC00002307E0FB79064AD35C002B0CBF012310
:100DCC000023DBB218460C37BD4680BC704700BF11
:100DDC004400002080B483B000AF0346FB71FB7964
:100DEC00022B01D9FF2307E0FB79064AD35C012BC8
:100DFC000CBF01230023DBB218460C37BD4680BC68
:100E0C00704700BF5000002080B483B000AF034691
:100E1C00FB71FB79022B01D9002307E0FB79064A11
:100E2C00D35C012B0CBF01230023DBB218460C371B
:100E3C00BD4680BC704700BF5400002080B500AF99
:100E4C0000F064FA00F024F800F0AAF800F05CF866
:100E5C000E4801F0A3F9FFF75FFFFFF7E5FD012056
:100E6C0000F00EF90A2000F01FF9FFF705FE00F064
:100E7C008FF90346002B04D0FFF762FC0A2000F028
:100E8C0013F9FFF7B9FBFFF7D7FEEEE7A000002040
:100E9C0080B590B000AF07F1180328220021184646
:100EAC0001F038FD3B1D00221A605A609A60DA602E
:100EBC001A610223BB610123BB621023FB62002376
:100ECC007B6307F11803184600F03CFD0346002B2A
:100EDC0001D000F0CFF80F237B600023BB60002310
:100EEC00FB6000233B6100237B613B1D0021184606
:100EFC0000F0A8FF0346002B01D000F0BBF800BFA8
:100F0C004037BD4680BD000080B586B000AF07F10C
:100F1C00080300221A605A609A60DA603B4600228D
:100F2C001A605A601D4B4FF080421A601B4B41F601
:100F3C003F725A60194B00229A60184B0922DA60F2
:100F4C00164B00221A61154B00229A61134801F0CE
:100F5C00D5F80346002B01D000F08CF84FF48053E9
:100F6C00BB6007F1080319460C4801F06BFA034605
:100F7C00002B01D000F07EF800233B6000237B6047
:100F8C003B461946054801F037FC0346002B01D0BF
:100F9C0000F070F800BF1837BD4680BDA0000020DF
:100FAC0080B586B000AF07F1080300221A605A60C2
:100FBC009A60DA60274B9B69264A43F004039361DD
:100FCC00244B9B6903F004037B607B68214B9B697A
:100FDC00204A43F0080393611E4B9B6903F00803FE
:100FEC003B603B68002243F6F0711B4800F078FC34
:100FFC0000227F21194800F073FC0E23BB600023F4
:10100C00FB6000233B6107F108031946124800F00E
:10101C00EDFA43F6F073BB600123FB6000233B61E8
:10102C0002237B6107F1080319460B4800F0DEFA36
:10103C007F23BB600123FB6000233B6102237B61A8
:10104C0007F108031946054800F0D0FA00BF18371D
:10105C00BD4680BD0010024000080140000C01405C
:10106C0080B582B000AF786000F032F800BF08376E
:10107C00BD4680BD80B400AF72B600BFFEE7000075
:10108C0080B483B000AF7860054A7B681360054B71
:10109C0000221A6000BF0C37BD4680BC704700BFF1
:1010AC00680000206C00002080B483B000AF786032
:1010BC00054A7B681360054B00221A6000BF0C3791
:1010CC00BD4680BC704700BF70000020740000203B
:1010DC0080B400AF214B1B68002B0BDD1F4B1B6832
:1010EC00013B1E4A13601D4B1B68002B02D11C4B8D
:1010FC0001221A601B4B1B68002B0BDD194B1B6864
:10110C00013B184A1360174B1B68002B02D1164B7E
:10111C0001221A60154B1B68002B0BDD134B1B684F
:10112C00013B124A1360114B1B68002B02D1104B70
:10113C0001221A600F4B1B68002B0BDD0D4B1B683B
:10114C00013B0C4A13600B4B1B68002B02D10A4B62
:10115C0001221A6000BFBD4680BC704768000020A9
:10116C006C0000207000002074000020780000202B
:10117C007C000020800000208400002080B400AFA0
:10118C00024B1B681846BD4680BC70476C000020A3
:10119C0080B400AF024B1B681846BD4680BC70473C
:1011AC007400002080B485B000AF154B9B69144AC5
:1011BC0043F001039361124B9B6903F00103BB6085
:1011CC00BB680F4BDB690E4A43F08053D3610C4B69
:1011DC00DB6903F080537B607B680A4B5B68FB60C8
:1011EC00FB6823F0E063FB60FB6843F08063FB600B
:1011FC00044AFB68536000BF1437BD4680BC70477F
:10120C00001002400000014080B584B000AF78604F
:10121C007B681B68B3F1804F13D10C4BDB690B4A15
:10122C0043F00103D361094BDB6903F00103FB605D
:10123C00FB68002200211C2000F0A1F91C2000F00A
:10124C00BAF900BF1037BD4680BD00BF0010024088
:10125C0080B400AFFEE780B400AFFEE780B400AF0F
:10126C00FEE780B400AFFEE780B400AFFEE780B4C9
:10127C0000AF00BFBD4680BC704780B400AF00BF5C
:10128C00BD4680BC704780B400AF00BFBD4680BC7B
:10129C00704780B500AF00F07FF800BF80BD000044
:1012AC0080B500AF024800F0C5FF00BF80BD00BF95
:1012BC00A000002080B400AF00BFBD4680BC7047CA
:1012CC00FFF7F8FF0B480C490C4A002302E0D458F6
:1012DC00C4500433C4188C42F9D3094A094C002376
:1012EC0001E013600432A242FBD301F0EFFAFFF7E6
:1012FC00A5FD7047000000201C0000207429000888
:10130C001C000020EC000020FEE7000080B500AFC0
:10131C00084B1B68074A43F010031360032000F0CE
:10132C0023F90F2000F008F8FFF73CFF00231846C4
:10133C0080BD00BF0020024080B582B000AF786055
:10134C00124B1A68124B1B7819464FF47A73B3FB85
:10135C00F1F3B2FBF3F3184600F03BF90346002B14
:10136C0001D001230EE07B680F2B0AD8002279688C
:10137C004FF0FF3000F003F9064A7B68136000233E
:10138C0000E0012318460837BD4680BD1000002040
:10139C00180000201400002080B400AF054B1B780F
:1013AC001A46054B1B681344034A136000BFBD4625
:1013BC0080BC704718000020E800002080B400AF0B
:1013CC00024B1B681846BD4680BC7047E8000020E5
:1013DC0080B485B000AF78607B6803F00703FB60D6
:1013EC000C4BDB68BB60BA684FF6FF031340BB6065
:1013FC00FB681A02BB68134343F0BF6343F400332A
:10140C00BB60044ABB68D36000BF1437BD4680BCC8
:10141C00704700BF00ED00E080B400AF044BDB6808
:10142C001B0A03F007031846BD4680BC704700BF7B
:10143C0000ED00E080B483B000AF0346FB7197F978
:10144C000730002B0BDBFB7903F01F02064997F9E1
:10145C0007305B09012000FA02F241F8232000BF9B
:10146C000C37BD4680BC704700E100E080B483B00F
:10147C0000AF03463960FB7197F90730002B0ADB8C
:10148C003B68DAB20C4997F907301201D2B20B441F
:10149C0083F800230AE03B68DAB20849FB7903F0D1
:1014AC000F03043B1201D2B20B441A7600BF0C3767
:1014BC00BD4680BC704700BF00E100E000ED00E0DD
:1014CC0080B489B000AFF860B9607A60FB6803F053
:1014DC000703FB61FB69C3F10703042B28BF04233B
:1014EC00BB61FB690433062B02D9FB69033B00E0AB
:1014FC0000237B614FF0FF32BB6902FA03F3DA433E
:10150C00BB681A407B699A404FF0FF317B6901FA46
:10151C0003F3D9437B680B40134318462437BD466D
:10152C0080BC704780B582B000AF78607B68013BAF
:10153C00B3F1807F01D301230FE00A4A7B68013BA2
:10154C0053600F214FF0FF30FFF790FF054B002247
:10155C009A60044B07221A60002318460837BD46D0
:10156C0080BD00BF10E000E080B582B000AF7860B5
:10157C007868FFF72DFF00BF0837BD4680BD80B5EA
:10158C0086B000AF0346B9607A60FB7300237B61C1
:10159C00FFF742FF78617A68B9687869FFF790FFC6
:1015AC00024697F90F3011461846FFF75FFF00BF50
:1015BC001837BD4680BD80B582B000AF0346FB71C5
:1015CC0097F907301846FFF735FF00BF0837BD46BF
:1015DC0080BD80B582B000AF78607868FFF7A2FF5D
:1015EC00034618460837BD4680BD000080B48BB05A
:1015FC0000AF7860396000237B6200233B6248E1D6
:10160C0001227B6A02FA03F3FB613B681B68FA69EF
:10161C001340BB61BA69FB699A4240F037813B6861
:10162C005B68A34A93425ED0A14A934275D8A14A03
:10163C00934258D09F4A93426FD89F4A934252D0BC
:10164C009D4A934269D89D4A93424CD09B4A9342FF
:10165C0063D89B4A934246D0994A93425DD8122B49
:10166C002AD8122B59D801A252F823F0F3160008ED
:10167C00CD160008DF1600082117000827170008F0
:10168C002717000827170008271700082717000836
:10169C002717000827170008271700082717000826
:1016AC002717000827170008271700082717000816
:1016BC00D5160008E9160008824A934213D02CE094
:1016CC003B68DB683B6229E03B68DB6804333B62C8
:1016DC0024E03B68DB6808333B621FE03B68DB6857
:1016EC000C333B621AE03B689B68002B02D104234D
:1016FC003B6213E03B689B68012B05D108233B62DE
:10170C007B68FA691A6109E008233B627B68FA6915
:10171C005A6103E000233B6200E000BFBB69FF2B72
:10172C0001D87B6801E07B6804337B61BB69FF2BCC
:10173C0002D87B6A9B0002E07B6A083B9B003B6102
:10174C007B691A680F213B6901FA03F3DB431A40EA
:10175C00396A3B6901FA03F31A437B691A603B68E7
:10176C005B6803F08053002B00F09080564B9B6914
:10177C00554A43F001039361534B9B6903F00103FA
:10178C00BB60BB68514A7B6A9B08023352F823301A
:10179C00FB607B6A03F003039B000F2202FA03F346
:1017AC00DB43FA681340FB607B68494A93420DD0D7
:1017BC007B68484A934207D07B68474A934201D1E1
:1017CC00022304E0032302E0012300E000237A6AF1
:1017DC0002F0030292009340FA681343FB603B490A
:1017EC007B6A9B080233FA6841F823203B685B68EC
:1017FC0003F48013002B06D0384B9A683749BB6929
:10180C0013438B6006E0354B9A68BB69DB43334965
:10181C0013408B603B685B6803F40013002B06D00D
:10182C002E4BDA682D49BB691343CB6006E02B4B7A
:10183C00DA68BB69DB4329491340CB603B685B68C2
:10184C0003F40033002B06D0244B5A682349BB69A0
:10185C0013434B6006E0214B5A68BB69DB431F49BD
:10186C0013404B603B685B6803F48033002B06D05D
:10187C001A4B1A681949BB6913430B6006E0174BE6
:10188C001A68BB69DB43154913400B607B6A013353
:10189C007B623B681A687B6A22FA03F3002B7FF4A5
:1018AC00AFAE00BF00BF2C37BD4680BC704700BF39
:1018BC000000321000003110000022100000211036
:1018CC000000121000001110001002400000014036
:1018DC0000080140000C01400010014000040140D0
:1018EC0080B483B000AF78600B467B8013467B706E
:1018FC007B78002B03D07A887B681A6103E07B88A5
:10190C001A047B681A6100BF0C37BD4680BC704757
:10191C0080B485B000AF78600B467B807B68DB6859
:10192C00FB607A88FB6813401A04FB68D9437B88F8
:10193C000B401A437B681A6100BF1437BD4680BC4C
:10194C007047000080B586B000AF78607B68002BD4
:10195C0001D101236CE27B681B6803F00103002BAF
:10196C0000F08780924B5B6803F00C03042B0CD0C7
:10197C008F4B5B6803F00C03082B12D18C4B5B680C
:10198C0003F48033B3F5803F0BD1894B1B6803F410
:10199C000033002B6CD07B685B68002B68D1012373
:1019AC0046E27B685B68B3F5803F06D1804B1B68D1
:1019BC007F4A43F4803313602EE07B685B68002B16
:1019CC000CD17B4B1B687A4A23F480331360784B21
:1019DC001B68774A23F4802313601DE07B685B68E7
:1019EC00B3F5A02F0CD1724B1B68714A43F48023C2
:1019FC0013606F4B1B686E4A43F4803313600BE02B
:101A0C006B4B1B686A4A23F480331360684B1B686A
:101A1C00674A23F4802313607B685B68002B13D028
:101A2C00FFF7CCFC386108E0FFF7C8FC02463B69C5
:101A3C00D31A642B01D90323FAE15D4B1B6803F421
:101A4C000033002BF0D014E0FFF7B8FC386108E04D
:101A5C00FFF7B4FC02463B69D31A642B01D903236C
:101A6C00E6E1534B1B6803F40033002BF0D100E08C
:101A7C0000BF7B681B6803F00203002B63D04C4B48
:101A8C005B6803F00C03002B0BD0494B5B6803F035
:101A9C000C03082B1CD1464B5B6803F48033002BE2
:101AAC0016D1434B1B6803F00203002B05D07B6857
:101ABC001B69012B01D00123BAE13D4B1B6823F0BC
:101ACC00F8027B685B69DB00394913430B603AE031
:101ADC007B681B69002B20D0364B01221A60FFF764
:101AEC006DFC386108E0FFF769FC02463B69D31ACC
:101AFC00022B01D903239BE12D4B1B6803F002033E
:101B0C00002BF0D02A4B1B6823F0F8027B685B6932
:101B1C00DB00274913430B6015E0264B00221A60AB
:101B2C00FFF74CFC386108E0FFF748FC02463B69C4
:101B3C00D31A022B01D903237AE11D4B1B6803F046
:101B4C000203002BF0D17B681B6803F00803002B09
:101B5C003AD07B689B69002B19D0174B01221A6075
:101B6C00FFF72CFC386108E0FFF728FC02463B69C4
:101B7C00D31A022B01D903235AE10D4B5B6A03F0F4
:101B8C000203002BF0D0012000F09AFA1CE00A4B63
:101B9C0000221A60FFF712FC38610FE0FFF70EFC11
:101BAC0002463B69D31A022B08D9032340E100BF3C
:101BBC000010024000004242800442429E4B5B6A8D
:101BCC0003F00203002BE9D17B681B6803F00403CC
:101BDC00002B00F0A6800023FB75974BDB6903F00C
:101BEC008053002B0DD1944BDB69934A43F0805307
:101BFC00D361914BDB6903F08053BB60BB6801235D
:101C0C00FB758E4B1B6803F48073002B18D18B4B28
:101C1C001B688A4A43F480731360FFF7CFFB38616B
:101C2C0008E0FFF7CBFB02463B69D31A642B01D9C2
:101C3C000323FDE0814B1B6803F48073002BF0D071
:101C4C007B68DB68012B06D17B4B1B6A7A4A43F01D
:101C5C00010313622DE07B68DB68002B0CD1764B03
:101C6C001B6A754A23F001031362734B1B6A724A99
:101C7C0023F0040313621CE07B68DB68052B0CD19A
:101C8C006D4B1B6A6C4A43F0040313626A4B1B6A6C
:101C9C00694A43F0010313620BE0674B1B6A664A07
:101CAC0023F001031362644B1B6A634A23F00403A1
:101CBC0013627B68DB68002B15D0FFF77FFB386164
:101CCC000AE0FFF77BFB02463B69D31A41F28832EC
:101CDC00934201D90323ABE0574B1B6A03F0020379
:101CEC00002BEED014E0FFF769FB38610AE0FFF738
:101CFC0065FB02463B69D31A41F28832934201D903
:101D0C00032395E04C4B1B6A03F00203002BEED12E
:101D1C00FB7D012B05D1484BDB69474A23F08053EF
:101D2C00D3617B68DB69002B00F08180424B5B68E0
:101D3C0003F00C03082B61D07B68DB69022B46D1C6
:101D4C003F4B00221A60FFF739FB386108E0FFF7C0
:101D5C0035FB02463B69D31A022B01D9032367E0FA
:101D6C00354B1B6803F00073002BF0D17B681B6AAA
:101D7C00B3F5803F08D1304B5B6823F400327B68AD
:101D8C009B682D4913434B602B4B5B6823F47412F7
:101D9C007B68196A7B685B6A0B43274913434B606A
:101DAC00274B01221A60FFF709FB386108E0FFF7A7
:101DBC0005FB02463B69D31A022B01D9032337E0FA
:101DCC001D4B1B6803F00073002BF0D02FE01C4B55
:101DDC0000221A60FFF7F2FA386108E0FFF7EEFA1A
:101DEC0002463B69D31A022B01D9032320E0124B84
:101DFC001B6803F00073002BF0D118E07B68DB69E3
:101E0C00012B01D1012313E00B4B5B68FB60FB68DA
:101E1C0003F480327B681B6A9A4206D1FB6803F498
:101E2C0070127B685B6A9A4201D0012300E00023A8
:101E3C0018461837BD4680BD0010024000700040A7
:101E4C006000424280B584B000AF786039607B6836
:101E5C00002B01D10123D0E06A4B1B6803F0070370
:101E6C003A689A4210D9674B1B6823F00702654900
:101E7C003B6813430B60634B1B6803F007033A6822
:101E8C009A4201D00123B8E07B681B6803F002037F
:101E9C00002B20D07B681B6803F00403002B05D0BB
:101EAC00594B5B68584A43F4E06353607B681B688A
:101EBC0003F00803002B05D0534B5B68524A43F4E4
:101ECC0060535360504B5B6823F0F0027B689B6857
:101EDC004D4913434B607B681B6803F00103002BD7
:101EEC0040D07B685B68012B07D1474B1B6803F420
:101EFC000033002B15D101237FE07B685B68022B3C
:101F0C0007D1414B1B6803F00073002B09D101234F
:101F1C0073E03D4B1B6803F00203002B01D101233E
:101F2C006BE0394B5B6823F003027B685B683649D6
:101F3C0013434B60FFF742FAF8600AE0FFF73EFAF2
:101F4C000246FB68D31A41F28832934201D903232B
:101F5C0053E02D4B5B6803F00C027B685B689B00C5
:101F6C009A42EBD1274B1B6803F007033A689A425D
:101F7C0010D2244B1B6823F0070222493B68134301
:101F8C000B60204B1B6803F007033A689A4201D0A0
:101F9C00012332E07B681B6803F00403002B08D09C
:101FAC00194B5B6823F4E0627B68DB6816491343CA
:101FBC004B607B681B6803F00803002B09D0124BA5
:101FCC005B6823F460527B681B69DB000E4913438A
:101FDC004B6000F021F802460B4B5B681B0903F0C9
:101FEC000F030A49CB5C22FA03F3094A1360094B2D
:101FFC001B681846FFF7A0F9002318461037BD469A
:10200C0080BD00BF0020024000100240482900089B
:10201C00100000201400002080B487B000AF002313
:10202C00FB600023BB6000237B6100237B600023EB
:10203C003B611E4B5B68FB60FB6803F00C03042BDD
:10204C0002D0082B03D027E0194B3B6127E0FB683B
:10205C009B0C03F00F03174AD35C7B60FB6803F403
:10206C008033002B10D0114B5B685B0C03F0010329
:10207C00114AD35CBB607B680D4A02FB03F2BB6860
:10208C00B2FBF3F37B6104E07B680C4A02FB03F3C5
:10209C007B617B693B6102E0054B3B6100BF3B69A7
:1020AC0018461C37BD4680BC704700BF001002406C
:1020BC0000127A00582900086829000800093D0020
:1020CC0080B485B000AF78600A4B1B680A4AA2FB4B
:1020DC0003235B0A7A6802FB03F3FB6000BFFB6817
:1020EC005A1EFA60002BF9D100BF00BF1437BD4651
:1020FC0080BC704710000020D34D621080B582B0B8
:10210C0000AF78607B68002B01D1012341E07B6834
:10211C0093F83D30DBB2002B06D17B68002283F8AC
:10212C003C207868FFF770F87B68022283F83D202A
:10213C007B681A687B6804331946104600F06EFA07
:10214C007B68012283F846207B68012283F83E20BD
:10215C007B68012283F83F207B68012283F84020B2
:10216C007B68012283F841207B68012283F842209E
:10217C007B68012283F843207B68012283F844208A
:10218C007B68012283F845207B68012283F83D207F
:10219C00002318460837BD4680BD000080B485B0CA
:1021AC0000AF78607B6893F83D30DBB2012B01D037
:1021BC00012335E07B68022283F83D207B681B6895
:1021CC00DA687B681B6842F00102DA607B681B6886
:1021DC00164A934209D07B681B68B3F1804F04D038
:1021EC007B681B68124A934211D17B681B689B6801
:1021FC0003F00703FB60FB68062B10D07B681B68A1
:10220C001A687B681B6842F001021A6007E07B6861
:10221C001B681A687B681B6842F001021A60002375
:10222C0018461437BD4680BC704700BF002C0140D7
:10223C000004004080B582B000AF78607B681B68FA
:10224C001B6903F00203022B22D17B681B68DB683D
:10225C0003F00203022B1BD17B681B686FF0020298
:10226C001A617B6801221A777B681B689B6903F0F3
:10227C000303002B03D0786800F0B4F905E078680C
:10228C0000F0A7F9786800F0B6F97B6800221A779D
:10229C007B681B681B6903F00403042B22D17B6849
:1022AC001B68DB6803F00403042B1BD17B681B68E1
:1022BC006FF004021A617B6802221A777B681B6834
:1022CC009B6903F44073002B03D0786800F08AF903
:1022DC0005E0786800F07DF9786800F08CF97B688F
:1022EC0000221A777B681B681B6903F00803082B14
:1022FC0022D17B681B68DB6803F00803082B1BD119
:10230C007B681B686FF008021A617B6804221A77DD
:10231C007B681B68DB6903F00303002B03D0786830
:10232C0000F060F905E0786800F053F9786800F087
:10233C0062F97B6800221A777B681B681B6903F0C3
:10234C001003102B22D17B681B68DB6803F0100391
:10235C00102B1BD17B681B686FF010021A617B6815
:10236C0008221A777B681B68DB6903F44073002B27
:10237C0003D0786800F036F905E0786800F029F9A8
:10238C00786800F038F97B6800221A777B681B6844
:10239C001B6903F00103012B0ED17B681B68DB6802
:1023AC0003F00103012B07D17B681B686FF001025E
:1023BC001A617868FEF754FE7B681B681B6903F092
:1023CC008003802B0ED17B681B68DB6803F08003D5
:1023DC00802B07D17B681B686FF080021A617868CC
:1023EC0000F06BFA7B681B681B6903F04003402B01
:1023FC000ED17B681B68DB6803F04003402B07D1D0
:10240C007B681B686FF040021A61786800F0FCF87A
:10241C007B681B681B6903F02003202B0ED17B68A3
:10242C001B68DB6803F02003202B07D17B681B683B
:10243C006FF020021A61786800F036FA00BF083796
:10244C00BD4680BD80B584B000AF78603960002394
:10245C00FB737B6893F83C30012B01D10223B4E071
:10246C007B68012283F83C207B68022283F83D20A4
:10247C007B681B689B68BB60BB6823F07703BB6001
:10248C00BB6823F47F43BB607B681B68BA689A60A7
:10249C003B681B68B3F5005F3ED0B3F5005F00F2FC
:1024AC008780B3F5805F00F08680B3F5805F7FD8BE
:1024BC00702B1AD0702B7BD8602B50D0602B77D818
:1024CC00502B3CD0502B73D8402B58D0402B6FD86E
:1024DC00302B64D0302B6BD8202B60D0202B67D8BE
:1024EC00002B5CD0102B5AD062E07B6818683B68DC
:1024FC0099683B685A683B68DB6800F05EF97B685A
:10250C001B689B68BB60BB6843F07703BB607B6850
:10251C001B68BA689A604FE07B6818683B689968DA
:10252C003B685A683B68DB6800F047F97B681B68BE
:10253C009A687B681B6842F480429A603CE07B6836
:10254C0018683B6859683B68DB681A4600F0BEF8AF
:10255C007B681B685021184600F015F92CE07B684D
:10256C0018683B6859683B68DB681A4600F0DCF871
:10257C007B681B686021184600F005F91CE07B683D
:10258C0018683B6859683B68DB681A4600F09EF88F
:10259C007B681B684021184600F0F5F80CE07B685E
:1025AC001A683B681B681946104600F0ECF803E00B
:1025BC000123FB7300E000BF7B68012283F83D2000
:1025CC007B68002283F83C20FB7B18461037BD4605
:1025DC0080BD80B483B000AF786000BF0C37BD46BF
:1025EC0080BC704780B483B000AF786000BF0C37FC
:1025FC00BD4680BC704780B483B000AF786000BF2C
:10260C000C37BD4680BC704780B483B000AF786097
:10261C0000BF0C37BD4680BC7047000080B485B04D
:10262C0000AF786039607B681B68FB607B68254A6B
:10263C00934207D07B68B3F1804F03D07B68224A6A
:10264C00934208D1FB6823F07003FB603B685B6826
:10265C00FA681343FB607B681A4A934207D07B6885
:10266C00B3F1804F03D07B68174A934208D1FB68C3
:10267C0023F44073FB603B68DB68FA681343FB6030
:10268C00FB6823F080023B685B691343FB607B684B
:10269C00FA681A603B689A687B68DA623B681A6869
:1026AC007B689A627B68074A934203D13B681A693C
:1026BC007B681A637B6801225A6100BF1437BD46E0
:1026CC0080BC7047002C01400004004080B487B0EF
:1026DC0000AFF860B9607A60FB681B6A7B61FB68CD
:1026EC001B6A23F00102FB681A62FB689B693B6161
:1026FC003B6923F0F0033B617B681B013A69134390
:10270C003B617B6923F00A037B617A69BB681343E5
:10271C007B61FB683A699A61FB687A691A6200BF4F
:10272C001C37BD4680BC704780B487B000AFF860E2
:10273C00B9607A60FB681B6A7B61FB681B6A23F0DB
:10274C001002FB681A62FB689B693B613B6923F4CE
:10275C0070433B617B681B033A6913433B617B69A4
:10276C0023F0A0037B61BB681B017A6913437B6177
:10277C00FB683A699A61FB687A691A6200BF1C3778
:10278C00BD4680BC704780B485B000AF78603960BE
:10279C007B689B68FB60FB6823F07003FB603A6806
:1027AC00FB68134343F00703FB607B68FA689A608D
:1027BC0000BF1437BD4680BC704780B487B000AFF3
:1027CC00F860B9607A603B60FB689B687B617B69F1
:1027DC0023F47F437B613B681A027B681A43BB6816
:1027EC0013437A6913437B61FB687A699A6000BF73
:1027FC001C37BD4680BC704780B485B000AF786094
:10280C0039607B6893F83C30012B01D1022341E005
:10281C007B68012283F83C207B68022283F83D20F0
:10282C007B681B685B68FB607B681B689B68BB6094
:10283C00FB6823F07003FB603B681B68FA6813436A
:10284C00FB607B681B68FA685A607B681B68144ADB
:10285C00934209D07B681B68B3F1804F04D07B682E
:10286C001B68104A93420CD1BB6823F08003BB60F9
:10287C003B685B68BA681343BB607B681B68BA68CB
:10288C009A607B68012283F83D207B68002283F8E4
:10289C003C20002318461437BD4680BC704700BF4F
:1028AC00002C01400004004080B483B000AF78607D
:1028BC0000BF0C37BD4680BC704780B483B000AFFE
:1028CC00786000BF0C37BD4680BC704770B50026E1
:1028DC000C4D0D4C641BA410A64209D100F022F83B
:1028EC0000260A4D0A4C641BA410A64205D170BDEB
:1028FC0055F8043B98470136EEE755F8043B9847EA
:10290C000136F2E76C2900086C2900086C290008D4
:10291C007029000803460244934200D1704703F823
:10292C00011BF9E7F8B500BFF8BC08BC9E46704720
:0C293C00F8B500BFF8BC08BC9E46704710
:102948000000000000000000010203040607080957
:1029580002030405060708090A0B0C0D0E0F1010D8
:042968000102000068
:04296C00310100082D
:042970000D0100084D
:102974000500000003000000020000000100000048
:0C2984000024F40010000000010000001E
:04000005080012CD10
:00000001FF
